{
  "_format": "hh-sol-artifact-1",
  "contractName": "VoteStore",
  "sourceName": "contracts/Vote.sol",
  "abi": [
    {
      "anonymous": false,
      "inputs": [
        {
          "indexed": false,
          "internalType": "string",
          "name": "name",
          "type": "string"
        },
        {
          "indexed": false,
          "internalType": "uint256",
          "name": "age",
          "type": "uint256"
        },
        {
          "indexed": false,
          "internalType": "string",
          "name": "campaignPledge",
          "type": "string"
        }
      ],
      "name": "AddedCandidate",
      "type": "event"
    },
    {
      "anonymous": false,
      "inputs": [
        {
          "indexed": false,
          "internalType": "uint256",
          "name": "id",
          "type": "uint256"
        },
        {
          "indexed": false,
          "internalType": "uint256",
          "name": "_eventId",
          "type": "uint256"
        },
        {
          "indexed": false,
          "internalType": "uint256",
          "name": "_candidateId",
          "type": "uint256"
        }
      ],
      "name": "AddedVote",
      "type": "event"
    },
    {
      "anonymous": false,
      "inputs": [
        {
          "indexed": false,
          "internalType": "uint256",
          "name": "id",
          "type": "uint256"
        },
        {
          "indexed": false,
          "internalType": "string",
          "name": "title",
          "type": "string"
        },
        {
          "indexed": false,
          "internalType": "string",
          "name": "description",
          "type": "string"
        }
      ],
      "name": "CreatedEvent",
      "type": "event"
    },
    {
      "stateMutability": "payable",
      "type": "fallback"
    },
    {
      "inputs": [
        {
          "internalType": "uint256",
          "name": "_eventId",
          "type": "uint256"
        },
        {
          "internalType": "string",
          "name": "_name",
          "type": "string"
        },
        {
          "internalType": "uint256",
          "name": "_age",
          "type": "uint256"
        },
        {
          "internalType": "string",
          "name": "_campaignPledge",
          "type": "string"
        }
      ],
      "name": "addCandidate",
      "outputs": [],
      "stateMutability": "nonpayable",
      "type": "function"
    },
    {
      "inputs": [
        {
          "internalType": "string",
          "name": "_title",
          "type": "string"
        },
        {
          "internalType": "string",
          "name": "_description",
          "type": "string"
        }
      ],
      "name": "createEvent",
      "outputs": [],
      "stateMutability": "nonpayable",
      "type": "function"
    },
    {
      "inputs": [
        {
          "internalType": "uint256",
          "name": "_eventId",
          "type": "uint256"
        },
        {
          "internalType": "uint256",
          "name": "_candidateId",
          "type": "uint256"
        }
      ],
      "name": "createVote",
      "outputs": [],
      "stateMutability": "nonpayable",
      "type": "function"
    },
    {
      "inputs": [
        {
          "internalType": "uint256",
          "name": "",
          "type": "uint256"
        }
      ],
      "name": "events",
      "outputs": [
        {
          "internalType": "uint256",
          "name": "id",
          "type": "uint256"
        },
        {
          "internalType": "address",
          "name": "author",
          "type": "address"
        },
        {
          "internalType": "string",
          "name": "title",
          "type": "string"
        },
        {
          "internalType": "string",
          "name": "description",
          "type": "string"
        }
      ],
      "stateMutability": "view",
      "type": "function"
    },
    {
      "inputs": [],
      "name": "getAllEvent",
      "outputs": [
        {
          "components": [
            {
              "internalType": "uint256",
              "name": "id",
              "type": "uint256"
            },
            {
              "internalType": "address",
              "name": "author",
              "type": "address"
            },
            {
              "internalType": "string",
              "name": "title",
              "type": "string"
            },
            {
              "internalType": "string",
              "name": "description",
              "type": "string"
            },
            {
              "components": [
                {
                  "internalType": "uint256",
                  "name": "id",
                  "type": "uint256"
                },
                {
                  "internalType": "string",
                  "name": "name",
                  "type": "string"
                },
                {
                  "internalType": "uint256",
                  "name": "age",
                  "type": "uint256"
                },
                {
                  "internalType": "string",
                  "name": "campaignPledge",
                  "type": "string"
                }
              ],
              "internalType": "struct VoteStore.Candidate[]",
              "name": "candidates",
              "type": "tuple[]"
            }
          ],
          "internalType": "struct VoteStore.Event[]",
          "name": "",
          "type": "tuple[]"
        }
      ],
      "stateMutability": "view",
      "type": "function"
    },
    {
      "inputs": [],
      "name": "getAllVote",
      "outputs": [
        {
          "components": [
            {
              "internalType": "address",
              "name": "adr",
              "type": "address"
            },
            {
              "internalType": "uint256",
              "name": "eventId",
              "type": "uint256"
            },
            {
              "components": [
                {
                  "internalType": "uint256",
                  "name": "id",
                  "type": "uint256"
                },
                {
                  "internalType": "string",
                  "name": "name",
                  "type": "string"
                },
                {
                  "internalType": "uint256",
                  "name": "age",
                  "type": "uint256"
                },
                {
                  "internalType": "string",
                  "name": "campaignPledge",
                  "type": "string"
                }
              ],
              "internalType": "struct VoteStore.Candidate",
              "name": "candidate",
              "type": "tuple"
            }
          ],
          "internalType": "struct VoteStore.Vote[]",
          "name": "",
          "type": "tuple[]"
        }
      ],
      "stateMutability": "view",
      "type": "function"
    },
    {
      "inputs": [
        {
          "internalType": "uint256",
          "name": "_eventId",
          "type": "uint256"
        }
      ],
      "name": "getEvent",
      "outputs": [
        {
          "components": [
            {
              "internalType": "uint256",
              "name": "id",
              "type": "uint256"
            },
            {
              "internalType": "address",
              "name": "author",
              "type": "address"
            },
            {
              "internalType": "string",
              "name": "title",
              "type": "string"
            },
            {
              "internalType": "string",
              "name": "description",
              "type": "string"
            },
            {
              "components": [
                {
                  "internalType": "uint256",
                  "name": "id",
                  "type": "uint256"
                },
                {
                  "internalType": "string",
                  "name": "name",
                  "type": "string"
                },
                {
                  "internalType": "uint256",
                  "name": "age",
                  "type": "uint256"
                },
                {
                  "internalType": "string",
                  "name": "campaignPledge",
                  "type": "string"
                }
              ],
              "internalType": "struct VoteStore.Candidate[]",
              "name": "candidates",
              "type": "tuple[]"
            }
          ],
          "internalType": "struct VoteStore.Event",
          "name": "",
          "type": "tuple"
        }
      ],
      "stateMutability": "view",
      "type": "function"
    },
    {
      "inputs": [
        {
          "internalType": "uint256",
          "name": "",
          "type": "uint256"
        }
      ],
      "name": "voteList",
      "outputs": [
        {
          "internalType": "address",
          "name": "adr",
          "type": "address"
        },
        {
          "internalType": "uint256",
          "name": "eventId",
          "type": "uint256"
        },
        {
          "components": [
            {
              "internalType": "uint256",
              "name": "id",
              "type": "uint256"
            },
            {
              "internalType": "string",
              "name": "name",
              "type": "string"
            },
            {
              "internalType": "uint256",
              "name": "age",
              "type": "uint256"
            },
            {
              "internalType": "string",
              "name": "campaignPledge",
              "type": "string"
            }
          ],
          "internalType": "struct VoteStore.Candidate",
          "name": "candidate",
          "type": "tuple"
        }
      ],
      "stateMutability": "view",
      "type": "function"
    },
    {
      "stateMutability": "payable",
      "type": "receive"
    }
  ],
  "bytecode": "0x608060405234801561001057600080fd5b50612107806100206000396000f3fe60806040526004361061007f5760003560e01c8063897798541161004e57806389779854146101595780638a95baaa14610182578063a3989703146101ad578063e257a94c146101ec57610086565b80630b791430146100885780631002cdd4146100c85780631b468312146100f35780636d1884e01461011c57610086565b3661008657005b005b34801561009457600080fd5b506100af60048036038101906100aa9190611336565b610215565b6040516100bf9493929190611443565b60405180910390f35b3480156100d457600080fd5b506100dd610385565b6040516100ea9190611770565b60405180910390f35b3480156100ff57600080fd5b5061011a60048036038101906101159190611792565b6106ff565b005b34801561012857600080fd5b50610143600480360381019061013e9190611336565b6109e0565b6040516101509190611856565b60405180910390f35b34801561016557600080fd5b50610180600480360381019061017b91906119ad565b610d37565b005b34801561018e57600080fd5b50610197610e0b565b6040516101a49190611b5e565b60405180910390f35b3480156101b957600080fd5b506101d460048036038101906101cf9190611336565b611016565b6040516101e393929190611bea565b60405180910390f35b3480156101f857600080fd5b50610213600480360381019061020e9190611c28565b6111b2565b005b6000818154811061022557600080fd5b90600052602060002090600502016000915090508060000154908060010160009054906101000a900473ffffffffffffffffffffffffffffffffffffffff169080600201805461027490611ccf565b80601f01602080910402602001604051908101604052809291908181526020018280546102a090611ccf565b80156102ed5780601f106102c2576101008083540402835291602001916102ed565b820191906000526020600020905b8154815290600101906020018083116102d057829003601f168201915b50505050509080600301805461030290611ccf565b80601f016020809104026020016040519081016040528092919081815260200182805461032e90611ccf565b801561037b5780601f106103505761010080835404028352916020019161037b565b820191906000526020600020905b81548152906001019060200180831161035e57829003601f168201915b5050505050905084565b60606000805480602002602001604051908101604052809291908181526020016000905b828210156106f657838290600052602060002090600502016040518060a0016040529081600082015481526020016001820160009054906101000a900473ffffffffffffffffffffffffffffffffffffffff1673ffffffffffffffffffffffffffffffffffffffff1673ffffffffffffffffffffffffffffffffffffffff16815260200160028201805461043c90611ccf565b80601f016020809104026020016040519081016040528092919081815260200182805461046890611ccf565b80156104b55780601f1061048a576101008083540402835291602001916104b5565b820191906000526020600020905b81548152906001019060200180831161049857829003601f168201915b505050505081526020016003820180546104ce90611ccf565b80601f01602080910402602001604051908101604052809291908181526020018280546104fa90611ccf565b80156105475780601f1061051c57610100808354040283529160200191610547565b820191906000526020600020905b81548152906001019060200180831161052a57829003601f168201915b5050505050815260200160048201805480602002602001604051908101604052809291908181526020016000905b828210156106df5783829060005260206000209060040201604051806080016040529081600082015481526020016001820180546105b290611ccf565b80601f01602080910402602001604051908101604052809291908181526020018280546105de90611ccf565b801561062b5780601f106106005761010080835404028352916020019161062b565b820191906000526020600020905b81548152906001019060200180831161060e57829003601f168201915b505050505081526020016002820154815260200160038201805461064e90611ccf565b80601f016020809104026020016040519081016040528092919081815260200182805461067a90611ccf565b80156106c75780601f1061069c576101008083540402835291602001916106c7565b820191906000526020600020905b8154815290600101906020018083116106aa57829003601f168201915b50505050508152505081526020019060010190610575565b5050505081525050815260200190600101906103a9565b50505050905090565b600080838154811061071457610713611d00565b5b90600052602060002090600502016004019050600060405180606001604052803373ffffffffffffffffffffffffffffffffffffffff16815260200185815260200183858154811061076957610768611d00565b5b90600052602060002090600402016040518060800160405290816000820154815260200160018201805461079c90611ccf565b80601f01602080910402602001604051908101604052809291908181526020018280546107c890611ccf565b80156108155780601f106107ea57610100808354040283529160200191610815565b820191906000526020600020905b8154815290600101906020018083116107f857829003601f168201915b505050505081526020016002820154815260200160038201805461083890611ccf565b80601f016020809104026020016040519081016040528092919081815260200182805461086490611ccf565b80156108b15780601f10610886576101008083540402835291602001916108b1565b820191906000526020600020905b81548152906001019060200180831161089457829003601f168201915b5050505050815250508152509050600181908060018154018082558091505060019003906000526020600020906006020160009091909190915060008201518160000160006101000a81548173ffffffffffffffffffffffffffffffffffffffff021916908373ffffffffffffffffffffffffffffffffffffffff160217905550602082015181600101556040820151816002016000820151816000015560208201518160010190816109649190611edb565b506040820151816002015560608201518160030190816109849190611edb565b505050505060006001808054905061099c9190611fdc565b90507f9b315ce138212d42bd9b585a2650d69064ea2fc4460bed35d6625993bdddd5118186866040516109d193929190612010565b60405180910390a15050505050565b6109e86112a7565b600082815481106109fc576109fb611d00565b5b90600052602060002090600502016040518060a0016040529081600082015481526020016001820160009054906101000a900473ffffffffffffffffffffffffffffffffffffffff1673ffffffffffffffffffffffffffffffffffffffff1673ffffffffffffffffffffffffffffffffffffffff168152602001600282018054610a8590611ccf565b80601f0160208091040260200160405190810160405280929190818152602001828054610ab190611ccf565b8015610afe5780601f10610ad357610100808354040283529160200191610afe565b820191906000526020600020905b815481529060010190602001808311610ae157829003601f168201915b50505050508152602001600382018054610b1790611ccf565b80601f0160208091040260200160405190810160405280929190818152602001828054610b4390611ccf565b8015610b905780601f10610b6557610100808354040283529160200191610b90565b820191906000526020600020905b815481529060010190602001808311610b7357829003601f168201915b5050505050815260200160048201805480602002602001604051908101604052809291908181526020016000905b82821015610d28578382906000526020600020906004020160405180608001604052908160008201548152602001600182018054610bfb90611ccf565b80601f0160208091040260200160405190810160405280929190818152602001828054610c2790611ccf565b8015610c745780601f10610c4957610100808354040283529160200191610c74565b820191906000526020600020905b815481529060010190602001808311610c5757829003601f168201915b5050505050815260200160028201548152602001600382018054610c9790611ccf565b80601f0160208091040260200160405190810160405280929190818152602001828054610cc390611ccf565b8015610d105780601f10610ce557610100808354040283529160200191610d10565b820191906000526020600020905b815481529060010190602001808311610cf357829003601f168201915b50505050508152505081526020019060010190610bbe565b50505050815250509050919050565b6000808581548110610d4c57610d4b611d00565b5b90600052602060002090600502016004019050600081600181600181540180825580915050039060005260206000209060040201905084816001019081610d939190611edb565b5083816002018190555082816003019081610dae9190611edb565b5060018280549050610dc09190611fdc565b81600001819055507f4e13beb0f57e50dba5f485e9e3837082832242ffc4455ec4bdc52d97ffd87ea6858585604051610dfb93929190612047565b60405180910390a1505050505050565b60606001805480602002602001604051908101604052809291908181526020016000905b8282101561100d57838290600052602060002090600602016040518060600160405290816000820160009054906101000a900473ffffffffffffffffffffffffffffffffffffffff1673ffffffffffffffffffffffffffffffffffffffff1673ffffffffffffffffffffffffffffffffffffffff168152602001600182015481526020016002820160405180608001604052908160008201548152602001600182018054610edc90611ccf565b80601f0160208091040260200160405190810160405280929190818152602001828054610f0890611ccf565b8015610f555780601f10610f2a57610100808354040283529160200191610f55565b820191906000526020600020905b815481529060010190602001808311610f3857829003601f168201915b5050505050815260200160028201548152602001600382018054610f7890611ccf565b80601f0160208091040260200160405190810160405280929190818152602001828054610fa490611ccf565b8015610ff15780601f10610fc657610100808354040283529160200191610ff1565b820191906000526020600020905b815481529060010190602001808311610fd457829003601f168201915b5050505050815250508152505081526020019060010190610e2f565b50505050905090565b6001818154811061102657600080fd5b90600052602060002090600602016000915090508060000160009054906101000a900473ffffffffffffffffffffffffffffffffffffffff1690806001015490806002016040518060800160405290816000820154815260200160018201805461108f90611ccf565b80601f01602080910402602001604051908101604052809291908181526020018280546110bb90611ccf565b80156111085780601f106110dd57610100808354040283529160200191611108565b820191906000526020600020905b8154815290600101906020018083116110eb57829003601f168201915b505050505081526020016002820154815260200160038201805461112b90611ccf565b80601f016020809104026020016040519081016040528092919081815260200182805461115790611ccf565b80156111a45780601f10611179576101008083540402835291602001916111a4565b820191906000526020600020905b81548152906001019060200180831161118757829003601f168201915b505050505081525050905083565b600080600181600181540180825580915050039060005260206000209060050201905060016000805490506111e79190611fdc565b8160000181905550828160020190816112009190611edb565b50818160030190816112129190611edb565b50338160010160006101000a81548173ffffffffffffffffffffffffffffffffffffffff021916908373ffffffffffffffffffffffffffffffffffffffff1602179055507f49bf42b3221f0105a191cee20238102b05ac74988eae4da65f8bf3300b92e5fd60016000805490506112899190611fdc565b848460405161129a9392919061208c565b60405180910390a1505050565b6040518060a0016040528060008152602001600073ffffffffffffffffffffffffffffffffffffffff1681526020016060815260200160608152602001606081525090565b6000604051905090565b600080fd5b600080fd5b6000819050919050565b61131381611300565b811461131e57600080fd5b50565b6000813590506113308161130a565b92915050565b60006020828403121561134c5761134b6112f6565b5b600061135a84828501611321565b91505092915050565b61136c81611300565b82525050565b600073ffffffffffffffffffffffffffffffffffffffff82169050919050565b600061139d82611372565b9050919050565b6113ad81611392565b82525050565b600081519050919050565b600082825260208201905092915050565b60005b838110156113ed5780820151818401526020810190506113d2565b60008484015250505050565b6000601f19601f8301169050919050565b6000611415826113b3565b61141f81856113be565b935061142f8185602086016113cf565b611438816113f9565b840191505092915050565b60006080820190506114586000830187611363565b61146560208301866113a4565b8181036040830152611477818561140a565b9050818103606083015261148b818461140a565b905095945050505050565b600081519050919050565b600082825260208201905092915050565b6000819050602082019050919050565b6114cb81611300565b82525050565b6114da81611392565b82525050565b600082825260208201905092915050565b60006114fc826113b3565b61150681856114e0565b93506115168185602086016113cf565b61151f816113f9565b840191505092915050565b600081519050919050565b600082825260208201905092915050565b6000819050602082019050919050565b600060808301600083015161156e60008601826114c2565b506020830151848203602086015261158682826114f1565b915050604083015161159b60408601826114c2565b50606083015184820360608601526115b382826114f1565b9150508091505092915050565b60006115cc8383611556565b905092915050565b6000602082019050919050565b60006115ec8261152a565b6115f68185611535565b93508360208202850161160885611546565b8060005b85811015611644578484038952815161162585826115c0565b9450611630836115d4565b925060208a0199505060018101905061160c565b50829750879550505050505092915050565b600060a08301600083015161166e60008601826114c2565b50602083015161168160208601826114d1565b506040830151848203604086015261169982826114f1565b915050606083015184820360608601526116b382826114f1565b915050608083015184820360808601526116cd82826115e1565b9150508091505092915050565b60006116e68383611656565b905092915050565b6000602082019050919050565b600061170682611496565b61171081856114a1565b935083602082028501611722856114b2565b8060005b8581101561175e578484038952815161173f85826116da565b945061174a836116ee565b925060208a01995050600181019050611726565b50829750879550505050505092915050565b6000602082019050818103600083015261178a81846116fb565b905092915050565b600080604083850312156117a9576117a86112f6565b5b60006117b785828601611321565b92505060206117c885828601611321565b9150509250929050565b600060a0830160008301516117ea60008601826114c2565b5060208301516117fd60208601826114d1565b506040830151848203604086015261181582826114f1565b9150506060830151848203606086015261182f82826114f1565b9150506080830151848203608086015261184982826115e1565b9150508091505092915050565b6000602082019050818103600083015261187081846117d2565b905092915050565b600080fd5b600080fd5b7f4e487b7100000000000000000000000000000000000000000000000000000000600052604160045260246000fd5b6118ba826113f9565b810181811067ffffffffffffffff821117156118d9576118d8611882565b5b80604052505050565b60006118ec6112ec565b90506118f882826118b1565b919050565b600067ffffffffffffffff82111561191857611917611882565b5b611921826113f9565b9050602081019050919050565b82818337600083830152505050565b600061195061194b846118fd565b6118e2565b90508281526020810184848401111561196c5761196b61187d565b5b61197784828561192e565b509392505050565b600082601f83011261199457611993611878565b5b81356119a484826020860161193d565b91505092915050565b600080600080608085870312156119c7576119c66112f6565b5b60006119d587828801611321565b945050602085013567ffffffffffffffff8111156119f6576119f56112fb565b5b611a028782880161197f565b9350506040611a1387828801611321565b925050606085013567ffffffffffffffff811115611a3457611a336112fb565b5b611a408782880161197f565b91505092959194509250565b600081519050919050565b600082825260208201905092915050565b6000819050602082019050919050565b6000606083016000830151611a9060008601826114d1565b506020830151611aa360208601826114c2565b5060408301518482036040860152611abb8282611556565b9150508091505092915050565b6000611ad48383611a78565b905092915050565b6000602082019050919050565b6000611af482611a4c565b611afe8185611a57565b935083602082028501611b1085611a68565b8060005b85811015611b4c5784840389528151611b2d8582611ac8565b9450611b3883611adc565b925060208a01995050600181019050611b14565b50829750879550505050505092915050565b60006020820190508181036000830152611b788184611ae9565b905092915050565b6000608083016000830151611b9860008601826114c2565b5060208301518482036020860152611bb082826114f1565b9150506040830151611bc560408601826114c2565b5060608301518482036060860152611bdd82826114f1565b9150508091505092915050565b6000606082019050611bff60008301866113a4565b611c0c6020830185611363565b8181036040830152611c1e8184611b80565b9050949350505050565b60008060408385031215611c3f57611c3e6112f6565b5b600083013567ffffffffffffffff811115611c5d57611c5c6112fb565b5b611c698582860161197f565b925050602083013567ffffffffffffffff811115611c8a57611c896112fb565b5b611c968582860161197f565b9150509250929050565b7f4e487b7100000000000000000000000000000000000000000000000000000000600052602260045260246000fd5b60006002820490506001821680611ce757607f821691505b602082108103611cfa57611cf9611ca0565b5b50919050565b7f4e487b7100000000000000000000000000000000000000000000000000000000600052603260045260246000fd5b60008190508160005260206000209050919050565b60006020601f8301049050919050565b600082821b905092915050565b600060088302611d917fffffffffffffffffffffffffffffffffffffffffffffffffffffffffffffffff82611d54565b611d9b8683611d54565b95508019841693508086168417925050509392505050565b6000819050919050565b6000611dd8611dd3611dce84611300565b611db3565b611300565b9050919050565b6000819050919050565b611df283611dbd565b611e06611dfe82611ddf565b848454611d61565b825550505050565b600090565b611e1b611e0e565b611e26818484611de9565b505050565b5b81811015611e4a57611e3f600082611e13565b600181019050611e2c565b5050565b601f821115611e8f57611e6081611d2f565b611e6984611d44565b81016020851015611e78578190505b611e8c611e8485611d44565b830182611e2b565b50505b505050565b600082821c905092915050565b6000611eb260001984600802611e94565b1980831691505092915050565b6000611ecb8383611ea1565b9150826002028217905092915050565b611ee4826113b3565b67ffffffffffffffff811115611efd57611efc611882565b5b611f078254611ccf565b611f12828285611e4e565b600060209050601f831160018114611f455760008415611f33578287015190505b611f3d8582611ebf565b865550611fa5565b601f198416611f5386611d2f565b60005b82811015611f7b57848901518255600182019150602085019450602081019050611f56565b86831015611f985784890151611f94601f891682611ea1565b8355505b6001600288020188555050505b505050505050565b7f4e487b7100000000000000000000000000000000000000000000000000000000600052601160045260246000fd5b6000611fe782611300565b9150611ff283611300565b925082820390508181111561200a57612009611fad565b5b92915050565b60006060820190506120256000830186611363565b6120326020830185611363565b61203f6040830184611363565b949350505050565b60006060820190508181036000830152612061818661140a565b90506120706020830185611363565b8181036040830152612082818461140a565b9050949350505050565b60006060820190506120a16000830186611363565b81810360208301526120b3818561140a565b905081810360408301526120c7818461140a565b905094935050505056fea2646970667358221220f9b9189b1ee3892c3ad7c1dc7e2f8b7ae01059da8a3d6cdc21d6a0bd4d0e652264736f6c63430008110033",
  "linkReferences": {},
  "deployedLinkReferences": {}
}